:100000000C9463000C948B000C948B000C94AE0643
:100010000C94AE060C94AE060C948B000C948B00E2
:100020000C948B000C948B000C948B000C948B0024
:100030000C948B000C948B000C948B000C948B0014
:100040000C9464060C948B000C9432060C940C06F1
:100050000C948B000C948B000C948B000C948B00F4
:100060000C9426070C948B0000000000240027004D
:100070002A0000000008000201000003040700003D
:1000800000000000000000000000230026002900FE
:1000900000000000250028002B00040404040404D0
:1000A0000404020202020202030303030303010227
:1000B00004081020408001020408102001020408F6
:1000C00010208A085D0C11241FBECFEFD8E0DEBFE0
:1000D000CDBF23E0A0E1B2E001C01D92AF3EB20768
:1000E000E1F712E0A0E0B1E0E0E6F0E202C0059046
:1000F0000D92A031B107D9F710E0C2E6D0E004C0FC
:100100002197FE010E942B0EC136D107C9F70E942C
:100110005C090C9423100C94000008950895AF928C
:10012000BF92CF92DF92EF92FF920F931F93CF93E4
:10013000DF936C017B018B01040F151FEB015E0146
:10014000AE18BF08C017D10759F06991D601ED91DB
:10015000FC910190F081E02DC6010995892B79F77A
:10016000C501DF91CF911F910F91FF90EF90DF902C
:10017000CF90BF90AF900895FC01538D448D252FF3
:1001800030E0842F90E0821B930B541710F0CF9631
:10019000089501970895FC01918D828D981761F063
:1001A000A28DAE0FBF2FB11D5D968C91928D9F5F7A
:1001B0009F73928F90E008958FEF9FEF0895FC0159
:1001C000918D828D981731F0828DE80FF11D858D0C
:1001D00090E008958FEF9FEF0895FC01918D228D9F
:1001E000892F90E0805C9F4F821B91098F73992724
:1001F000089587E193E00E94ED0021E0892B09F446
:1002000020E0822F089580E090E0892B29F00E9461
:10021000F90081110C9400000895FC01A48DA80F31
:10022000B92FB11DA35ABF4F2C91848D90E0019638
:100230008F739927848FA689B7892C93A089B18958
:100240008C91837080648C93938D848D981306C0F9
:100250000288F389E02D80818F7D80830895EF925D
:10026000FF920F931F93CF93DF93EC0181E0888F70
:100270009B8D8C8D98131AC0E889F989808185FF40
:1002800015C09FB7F894EE89FF896083E889F989E2
:1002900080818370806480839FBF81E090E0DF91E4
:1002A000CF911F910F91FF90EF900895F62E0B8D37
:1002B00010E00F5F1F4F0F731127E02E8C8D8E11F2
:1002C0000CC00FB607FCFACFE889F989808185FF59
:1002D000F5CFCE010E940D01F1CFEB8DEC0FFD2F7C
:1002E000F11DE35AFF4FF0829FB7F8940B8FEA8914
:1002F000FB8980818062CFCFCF93DF93EC01888D23
:100300008823B9F0AA89BB89E889F9898C9185FD90
:1003100003C0808186FD0DC00FB607FCF7CF8C911E
:1003200085FFF2CF808185FFEDCFCE010E940D01C8
:10033000E9CFDF91CF91089590E0FC01EE58FF4F97
:100340002491FC01E255FF4F3491FC01E656FF4F2A
:10035000E491EE23C9F0222339F0233001F1A8F40F
:10036000213019F1223029F1F0E0EE0FFF1FE057A4
:10037000FF4FA591B4918FB7F894EC91611126C00D
:1003800030953E233C938FBF08952730A9F0283045
:10039000C9F0243049F7809180008F7D03C080919F
:1003A00080008F7780938000DFCF84B58F7784BD06
:1003B000DBCF84B58F7DFBCF8091B0008F778093AA
:1003C000B000D2CF8091B0008F7DF9CF3E2BDACF35
:1003D000CF93DF9390E0FC01E255FF4F24918656C6
:1003E0009F4FFC0184918823D1F090E0880F991FE2
:1003F000FC01E859FF4FA591B491FC01E057FF4F74
:10040000C591D49161110EC09FB7F8948C91E22FE1
:10041000E0958E238C932881E223E8839FBFDF91B0
:10042000CF9108958FB7F894EC91E22BEC938FBFA6
:10043000F6CF3FB7F8948091070390910803A091FD
:100440000903B0910A0326B5A89B05C02F3F19F0F8
:100450000196A11DB11D3FBFBA2FA92F982F882744
:10046000BC01CD01620F711D811D911D42E0660F1F
:10047000771F881F991F4A95D1F708958F929F92F1
:10048000AF92BF92CF92DF92EF92FF924B015C014D
:100490000E9419026B017C010E9419026C197D09EE
:1004A0008E099F09683E734081059105A8F321E0FC
:1004B000821A9108A108B10888EEC80E83E0D81E00
:1004C000E11CF11C81149104A104B10429F7FF90EF
:1004D000EF90DF90CF90BF90AF909F908F90089556
:1004E00020910D0330910E032817390771F4909174
:1004F0000B0380910C03981741F0E0910B03F0E09F
:10050000EE53FD4F808190E008958FEF9FEF0895A7
:100510000895EF92FF920F931F93CF93DF93DC0127
:100520005C96ED90FC905D97E114F10479F481E024
:1005300090E013969C938E93129790E080E0DF9169
:10054000CF911F910F91FF90EF9008955196ED91EB
:10055000FC91529750968C915097982F90950FB789
:100560005E962C915E97122F127021FD6095F89483
:100570002081112319F1282B2083E7012197F1F71E
:1005800028E0462F50E0308160FF1AC0382B3083BE
:10059000E7012197F1F7BA0175956795215089F721
:1005A000112381F08081892380830FBF5C968D9118
:1005B0009C910197F1F781E090E0C1CF2923DCCF36
:1005C0003923E5CF9081892BEFCF20910D03309116
:1005D0000E032817390771F480910C0320910B0347
:1005E00090E0805C9F4F821B910960E470E00E9464
:1005F000E10D089590E080E0089520910D03309181
:100600000E0328173907B9F490910B0380910C035E
:10061000981789F0E0910B03F0E0EE53FD4F8081D5
:1006200020910B0330E02F5F3F4F2F733327209330
:100630000B0390E008958FEF9FEF089508952091A8
:100640005102260F3327331F21323105ECF420915C
:100650009A02FC0190E080E0243069F082E0089585
:10066000A09151022191AC014F5C5D4FA40FB52FB9
:10067000B11D2C930196861798F380915102680F53
:100680006093510280E0089581E0089510929A02EB
:1006900081E0809399021092740261E082E10E94ED
:1006A0009C0161E083E10E949C01E9EBF0E0808124
:1006B0008E7F808380818D7F808388E48093B800E3
:1006C00085E48093BC000895CF93DF9391E09093ED
:1006D00030028823B9F0C091B800D091BA0080915F
:1006E000BC008A7B8093BC0060E082E10E949C0198
:1006F00060E083E10E949C010E944603D093BA000F
:10070000C093B800DF91CF910895E09116038091D6
:100710001503E81730F4F0E0E05FFD4F808190E0D2
:1007200008958FEF9FEF0895909116038091150320
:100730002FEF3FEF981748F4E92FF0E0E05FFD4F0F
:10074000208130E09F5F90931603C9010895809146
:10075000150390911603891B990B0895CF92DF9290
:10076000EF92FF920F931F93CF93DF937C01CB0106
:100770008A012091A002222389F0EB016B01C40EB3
:10078000D51ECC15DD0569F06991D701ED91FC917D
:100790000190F081E02DC7010995F3CF642F0E94ED
:1007A0001F03C801DF91CF911F910F91FF90EF9030
:1007B000DF90CF900895CF93DF931F92CDB7DEB730
:1007C00069832091A0022223F9F0209113032032A3
:1007D00058F021E030E0FC013383228390E080E098
:1007E0000F90DF91CF91089580911403E82FF0E0EE
:1007F000EF55FD4F998190838F5F80931403809311
:10080000130381E090E0ECCF61E0CE0101960E94FD
:100810001F03F7CFCF92DF92EF92FF920F931F93B8
:10082000CF93DF93FC01C48121E02093A002C09309
:10083000C10210921403109213038385682B84EB7A
:1008400093E00E94DB03D0911303D13208F092C0F1
:100850000E9419026B017C0180919A02811165C08E
:1008600082E080939A0281E0809399028FEF8093D7
:10087000980210929702D0939602A1EAB2E0E6E7BE
:10088000F2E080E0D81385C0109275028091750265
:10089000CC0FC82BC093750280917402813009F08F
:1008A0007CC0109274020E9419026B017C0180913D
:1008B00075028093BB0080919C0290919D02A09153
:1008C0009E02B0919F02892B8A2B8B2B99F00E945C
:1008D000190200919C0210919D0220919E0230917C
:1008E0009F026C197D098E099F09061717072807B3
:1008F0003907E0F18091BC0083FDD9CF85EC80936E
:10090000BC000E9419026B017C0180919A02823026
:1009100009F445C0809198028F3F61F1809198025F
:10092000803241F18091980225C080919C02909183
:100930009D02A0919E02B0919F02892B8A2B8B2B46
:1009400009F48ACF0E94190200919C0210919D0225
:1009500020919E0230919F026C197D098E099F099A
:10096000061717072807390708F076CF80919B02F2
:100970000E94640310921403109213031092A002B9
:10098000DF91CF911F910F91FF90EF90DF90CF906B
:1009900008959D9191938F5F75CF85EEB0CF809133
:1009A0009C0290919D02A0919E02B0919F02892B82
:1009B0008A2B8B2B09F4A9CF0E94190200919C026B
:1009C00010919D0220919E0230919F026C197D0929
:1009D0008E099F09061717072807390708F095CFD2
:1009E000C5CF90E080E008950F931F93CF938C01C3
:1009F000C62F0E940A046C2F6460C8010E940A047A
:100A00006C2F6B7FC8010E940A0483EC90E0019771
:100A1000F1F7CF911F910F9108950F931F93CF93EB
:100A2000DF938C01D62FC42F607F642B0E94F404C7
:100A300080E1D89FB00111246C2BC801DF91CF91C8
:100A40001F910F910C94F404CF93DF93CDB7DEB7D1
:100A500028970FB6F894DEBF0FBECDBF98E0E6E052
:100A6000F1E0DE01119601900D929A95E1F79091D7
:100A7000E703981708F48FEF90E0880F991F21E0A3
:100A800030E02C0F3D1F820F931FFC0160816068D6
:100A900040E08FED93E028960FB6F894DEBF0FBECE
:100AA000CDBFDF91CF910C940D0541E00E940D0563
:100AB00081E090E00895FB0101900020E9F7319773
:100AC000AF01461B570BDC01ED91FC910280F381D5
:100AD000E02D0994CF93DF93EC0160E571E080ECA9
:100AE00093E00E945B056AE571E080EC93E00E9470
:100AF0005B0568EE73E080E090E00E943E026DE5E9
:100B000071E080EC93E00E945B056AE571E080ECA7
:100B100093E00E945B0568EE73E080E090E00E9445
:100B20003E024C815D816881798180EC93E00E9476
:100B30008F0068EE73E080E090E00E943E026AE180
:100B400080EC93E00E94890268EE73E080E090E020
:100B5000DF91CF910C943E020F931F93CF93DF93BD
:100B6000EC0188819981009759F02A813B812617F1
:100B7000370730F081E0DF91CF911F910F910895F9
:100B80008B016F5F7F4F0E94560F009759F099833A
:100B900088831B830A832C813D81232B59F7FC0119
:100BA0001082E8CF80E0E7CF85ED8093BC00809194
:100BB0009C0290919D02A0919E02B0919F02079687
:100BC000A11DB11D23E0B695A795979587952A9508
:100BD000D1F72091BC0024FD03C010929A02089521
:100BE00040919C0250919D0260919E0270919F02E3
:100BF000452B462B472B69F30097A105B10541F022
:100C000025E32A95F1F700000197A109B109E1CF89
:100C100080919B020C9464031F920F920FB60F9267
:100C200011242F933F934F935F936F937F938F93F1
:100C30009F93AF93BF93EF93FF9387E193E00E945D
:100C40000D01FF91EF91BF91AF919F918F917F9196
:100C50006F915F914F913F912F910F900FBE0F9029
:100C60001F9018951F920F920FB60F9211242F9379
:100C70008F939F93EF93FF93E0912703F0912803C5
:100C80008081E0912D03F0912E0382FD1BC09081A5
:100C9000809130038F5F8F7320913103821741F071
:100CA000E0913003F0E0E95EFC4F958F80933003D4
:100CB000FF91EF919F918F912F910F900FBE0F9009
:100CC0001F9018958081F4CF1F920F920FB60F924C
:100CD00011242F933F938F939F93AF93BF93809152
:100CE000030390910403A0910503B0910603309192
:100CF000020323E0230F2D3758F50196A11DB11DE6
:100D0000209302038093030390930403A0930503AD
:100D1000B09306038091070390910803A091090303
:100D2000B0910A030196A11DB11D80930703909312
:100D30000803A0930903B0930A03BF91AF919F9159
:100D40008F913F912F910F900FBE0F901F9018958C
:100D500026E8230F0296A11DB11DD2CF1F920F923C
:100D60000FB60F9211242F933F934F935F936F937E
:100D70007F938F939F93AF93BF93EF93FF93E091F4
:100D80000D03F0910E03309749F0A685B785858550
:100D9000968D91FF14C09C918923A1F4FF91EF914E
:100DA000BF91AF919F918F917F916F915F914F9183
:100DB0003F912F910F900FBE0F901F9018959C910F
:100DC000892361F7A389B4899C91858980958923BA
:100DD0008C93868997890197F1F7608D718DA6852F
:100DE000B785558538E020E0CB010197F1F7822FD8
:100DF00090E095958795282F4C91452309F0206820
:100E0000315091F7868D81FD209580910C0390E003
:100E100001968F73992730910B03381799F0A091A1
:100E20000C03B0E0AE53BD4F2C9380930C03828D26
:100E3000938D0197F1F7A389B4898C919589892BBA
:100E40008C93ACCF868D8160868FF1CF1F920F92ED
:100E50000FB60F9211242F933F934F935F936F938D
:100E60007F938F939F93AF93BF93EF93FF93809163
:100E7000B900887F803609F44AC0F0F5883209F459
:100E8000A7C018F5803109F49BC0B8F4882309F491
:100E9000F9C0883009F494C0FF91EF91BF91AF91F0
:100EA0009F918F917F916F915F914F913F912F9182
:100EB0000F900FBE0F901F901895883109F488C0CD
:100EC000803251F78093980214C0803409F49DC099
:100ED00040F48033B9F38833F9F68093980285ECB7
:100EE000B0C0803509F485C0883509F496C08834CF
:100EF00099F60E94D405D0CF883909F48CC038F512
:100F0000883729F050F4883611F0803729F683E0CD
:100F100080939A021092730257C0883809F47BC0FC
:100F2000803919F0803809F0B7CF80917302803290
:100F300008F071C0E091730281E08E0F809373021C
:100F40008091BB00F0E0ED5AFD4F80833DC0803BB7
:100F500039F0E0F4803A09F479C0883A09F09CCF7E
:100F600084E080939A021092520210925102E09112
:100F70001103F091120309958091510281110FC064
:100F800081E0809351021092310209C0803C09F443
:100F9000A6CF883C09F4A3CF883B09F07DCFE09130
:100FA000520281E08E0F80935202F0E0EF5CFD4F21
:100FB00080818093BB00909152028091510229C0A0
:100FC000809175028093BB0085EC8093BC0064CF58
:100FD0009091970280919602981758F5E0919702A8
:100FE00081E08E0F80939702F0E0EA58FD4F8081F8
:100FF000E9CFE091970281E08E0F80939702809174
:10100000BB00F0E0EA58FD4F8083909197028091F9
:1010100096029817C8F285E8D8CFE091970281E050
:101020008E0F809397028091BB00F0E0EA58FD4F4D
:1010300080838091990281115CCF81E0809374025A
:1010400084EA8093BC0010929A0226CF85EC8093AC
:10105000BC0010929A0280917302803230F4E091C9
:101060007302F0E0ED5AFD4F10826091730270E060
:10107000E0910F03F091100383E592E0099510923F
:1010800073020ACF1092980234CFCF92DF92EF9280
:10109000FF920F931F93E82FF92F05C001501109FC
:1010A0002109310961F1908196239417B9F305C0A4
:1010B000015011092109310911F1908196239413EE
:1010C000F7CFC12CD12CE12CF12C0AC08FEFC81A1C
:1010D000D80AE80AF80A0C151D052E053F0579F017
:1010E00080818623841791F36C2D7D2D8E2D9F2D6D
:1010F0001F910F91FF90EF90DF90CF90089560E0E7
:1011000070E080E090E01F910F91FF90EF90DF90F2
:10111000CF90089510921A031092190388EE93E06D
:10112000A0E0B0E080931B0390931C03A0931D03E9
:10113000B0931E0322E131E030931803209317038C
:1011400025EC30E0309324032093230324EC30E09B
:10115000309326032093250320EC30E030932803BE
:101160002093270321EC30E030932A0320932903B6
:1011700022EC30E030932C0320932B0326EC30E05C
:1011800030932E0320932D031092300310923103DD
:1011900010923203109233031092B7031092B603E9
:1011A0008093B8039093B903A093BA03B093BB03A1
:1011B00024E231E03093B5032093B4031092E203AC
:1011C0001092E10328E431E03093E0032093DF0341
:1011D00027E22093E30320E12093E80322E0209319
:1011E000E9031092EA031092C3031092C2038093A2
:1011F000C4039093C503A093C603B093C70386E3CB
:1012000091E09093C1038093C0031092D703109292
:10121000D6031092D9031092D8031092DB031092D8
:10122000DA031092DD031092DC036091DE036E7F1F
:101230006D7F6093DE036695617081E0682783E0CF
:101240000E949C0161E083E00E94E801E1EBF0E094
:10125000E491E093D003EDE9F0E0E491F0E0EE0FEB
:10126000FF1FE057FF4F859194919093D203809395
:10127000D10360E082E00E94E8018091DE0381FDFD
:1012800004C061E082E00E949C0182E08093CC0374
:10129000E0EBF0E0E491E093CD03ECE9F0E0E491E1
:1012A000F0E0EE0FFF1FEA57FF4F85919491909366
:1012B000CF038093CE030895CF93DF93CDB7DEB7EE
:1012C000A1970FB6F894DEBF0FBECDBF789484B55A
:1012D000826084BD84B5816084BD85B5826085BD32
:1012E00085B5816085BD80916E00816080936E00C0
:1012F00010928100809181008260809381008091B2
:101300008100816080938100809180008160809362
:1013100080008091B10084608093B1008091B00022
:1013200081608093B00080917A00846080937A001D
:1013300080917A00826080937A0080917A00816047
:1013400080937A0080917A00806880937A0010926E
:10135000C100E0912703F091280382E08083E091AF
:101360002303F09124031082E0912503F0912603DA
:101370008FEC808310922F03E0912B03F0912C03CC
:1013800086E08083E0912903F0912A0380818061C7
:101390008083E0912903F0912A0380818860808313
:1013A000E0912903F0912A03808180688083E09195
:1013B0002903F0912A0380818F7D80831092DB03C3
:1013C0001092DA031092D9031092D8031092D70327
:1013D0001092D6038DE991E09093DD038093DC03B6
:1013E0009091CC03963108F047C02DEB30E030935C
:1013F000D7032093D6032BE931E03093D903209310
:10140000D8032CE231E03093DB032093DA03209100
:10141000680084E0983048F031E09E3008F430E015
:1014200081E001C0880F3A95EAF7822B809368002B
:101430002DE630E0983050F02BE630E09E3030F072
:101440002CE630E0963110F030E020E03093D40309
:101450002093D303292F30E0983008F0F2C181E0C7
:1014600001C0880F9A95EAF78093D5038091DC0339
:101470009091DD030197F1F78091DA039091DB03FE
:10148000892B49F1E0910D03F0910E0383E0E03CDC
:10149000F80709F1309739F0A389B4899C918589BF
:1014A000809589238C938091DE038E7F8093DE0369
:1014B00010920C0310920B0380EC93E090930E03B8
:1014C00080930D03E091D303F091D4038081909138
:1014D000D503892B80831092160310921503109266
:1014E0001403109213030E9446038DE890E090933A
:1014F0001203809311038EE890E090931003809381
:101500000F031092E4038091E903823018F098E011
:101510009093E4038093E70362E370E080E090E05F
:101520000E943E026091EA038FED93E00E940A045C
:1015300068EE73E080E090E00E943E0260E38FED91
:1015400093E00E94F4040BE416E4C8010197F1F75C
:1015500060E38FED93E00E94F404C8010197F1F776
:1015600060E38FED93E00E94F40483E592E001973D
:10157000F1F760E28FED93E00E94F4046091E403E0
:10158000606240E08FED93E00E940D0584E080935F
:10159000E50340E06CE08FED93E00E940D0540E034
:1015A00061E08FED93E00E940D050BE31FE1C801A0
:1015B0000197F1F782E08093E60340E066E08FED6B
:1015C00093E00E940D0540E062E08FED93E00E9401
:1015D0000D05C8010197F1F788E08093EA0360E008
:1015E0008FED93E00E940A0461E08BE00E94E80125
:1015F00060E08CE00E94E80161E087E00E94E80181
:1016000080E00E94240563E771E08FED93E00E9483
:101610005B0581E00E94240564E871E08FED93E0B2
:101620000E945B0560ED77E080E090E00E943E0262
:1016300040E061E08FED93E00E940D05C801019745
:10164000F1F71A8219821C821B821E821D8260E3BE
:1016500070E0CE0101960E94AC0529813A8181118A
:10166000FDC02115310519F0C9010E94CD0E1A8265
:1016700019821E821D821C821B82CE0101960E944D
:101680006A0589819A81009711F00E94CD0E93E03E
:10169000292E312C23E2822E912C3AE0432E512C1C
:1016A000612C712C40E0A42E40E0B42E60E08BE071
:1016B0000E949C01C1010197F1F761E08BE00E945B
:1016C0009C01C4010197F1F760E08BE00E949C014E
:1016D000EAEBF0E06491E6EAF0E08491E82FF0E0D4
:1016E000EE0FFF1FEA57FF4F8591949100E412E43B
:1016F0002FE030E0462F0E944508611571058105F5
:10170000910529F06F5F7F4F8F4F9F4F9F700E9411
:101710007B0C26E933E44BE05DE30E94B60C20E04D
:1017200030E040E05FE30E94B60C0E94AB0D6B011D
:101730007C0180E00E94240565EC71E08FED93E070
:101740000E945B0581E00E942405F7FE91C041E004
:101750006DE28FED93E00E940D0522273327A9014A
:101760002C193D094E095F0919A28E010F5D1F4F0B
:10177000CA01B901A30192010E94F50D605DF80153
:1017800062938F01211531054105510589F7011536
:10179000110529F0B8018FED93E00E945B0562ED21
:1017A00071E08FED93E00E945B05F4E6CF16D10463
:1017B000E104F1040CF07CC061E087E00E949C0130
:1017C00080E00E94240568ED71E08FED93E00E94B7
:1017D0005B051A8219821C821B821E821D8265E2B1
:1017E00070E0CE0101960E94AC0529813A818111F9
:1017F00055C02115310519F0C9010E94CD0E1A827C
:1018000019821E821D821C821B82CE0101960E94BB
:101810006A0589819A81009711F00E94CD0E68EEC9
:1018200073E080E090E00E943E02A114B10409F44C
:101830003DCF0E94F900882309F438CF0E940000B0
:1018400035CF9E3040F42850310981E001C0880F27
:101850002A95EAF709CE2E503109F7CF80E390E0C0
:101860009E838D8364E971E0C9010E941C1005CF3D
:10187000A701960119A28E010F5D1F4FCA01B90180
:10188000A30192010E94F50D605DF80162938F0142
:10189000211531054105510589F779CF85E290E0A1
:1018A0009E838D836AEE71E0C9010E941C10ADCF4A
:1018B00060E087E00E949C01B2CF86E391E09093C4
:1018C000C1038093C00380910D0390910E03805C4F
:1018D000934071F4E091D303F091D403908180910F
:1018E000D50380958923808310920E0310920D03F7
:1018F0000895E89409C097FB3EF490958095709503
:1019000061957F4F8F4F9F4F9923A9F0F92F96E94B
:10191000BB279395F695879577956795B795F111C0
:10192000F8CFFAF4BB0F11F460FF1BC06F5F7F4F5D
:101930008F4F9F4F16C0882311F096E911C077236F
:1019400021F09EE8872F762F05C0662371F096E878
:10195000862F70E060E02AF09A95660F771F881F47
:10196000DAF7880F9695879597F908950E94C90C24
:101970000C943A0D0E942C0D38F00E94330D20F08B
:10198000952311F00C94230D0C94290D11240C9423
:101990006E0D0E944B0D70F3959FC1F3950F50E0B3
:1019A000551F629FF001729FBB27F00DB11D639F11
:1019B000AA27F00DB11DAA1F649F6627B00DA11DB7
:1019C000661F829F2227B00DA11D621F739FB00D5D
:1019D000A11D621F839FA00D611D221F749F3327CD
:1019E000A00D611D231F849F600D211D822F762F66
:1019F0006A2F11249F5750409AF0F1F088234AF043
:101A0000EE0FFF1FBB1F661F771F881F91505040AE
:101A1000A9F79E3F510580F00C94230D0C946E0D98
:101A20005F3FE4F3983ED4F3869577956795B79535
:101A3000F795E7959F5FC1F7FE2B880F911D96954F
:101A4000879597F9089597F99F6780E870E060E0BF
:101A500008959FEF80EC089500240A941616170647
:101A600018060906089500240A941216130614068F
:101A700005060895092E0394000C11F4882352F0F2
:101A8000BB0F40F4BF2B11F460FF04C06F5F7F4FAA
:101A90008F4F9F4F089557FD9058440F551F59F091
:101AA0005F3F71F04795880F97FB991F61F09F3F4B
:101AB00079F087950895121613061406551FF2CF74
:101AC0004695F1DF08C0161617061806991FF1CFC4
:101AD00086957105610508940895E894BB276627EB
:101AE0007727CB0197F908952F923F924F925F92FB
:101AF0006F927F928F929F92AF92BF92CF92DF921E
:101B0000EF92FF920F931F93CF93DF93CDB7DEB782
:101B1000CA1BDB0B0FB6F894DEBF0FBECDBF099416
:101B20002A88398848885F846E847D848C849B846D
:101B3000AA84B984C884DF80EE80FD800C811B817B
:101B4000AA81B981CE0FD11D0FB6F894DEBF0FBEAA
:101B5000CDBFED0108950E94B20D6894B1110C94AF
:101B60006E0D08950E94530D88F09F5798F0B92F7D
:101B70009927B751B0F0E1F0660F771F881F991FC2
:101B80001AF0BA95C9F714C0B13091F00E946D0DEA
:101B9000B1E008950C946D0D672F782F8827B85FFA
:101BA00039F0B93FCCF3869577956795B395D9F71A
:101BB0003EF490958095709561957F4F8F4F9F4F24
:101BC000089597FB072E16F4009407D077FD09D0EF
:101BD0000E94170E07FC05D03EF4909581959F4F0B
:101BE0000895709561957F4F0895A1E21A2EAA1B62
:101BF000BB1BFD010DC0AA1FBB1FEE1FFF1FA217BD
:101C0000B307E407F50720F0A21BB30BE40BF50BB9
:101C1000661F771F881F991F1A9469F76095709542
:101C2000809590959B01AC01BD01CF010895AA1B41
:101C3000BB1B51E107C0AA1FBB1FA617B70710F0B7
:101C4000A61BB70B881F991F5A95A9F780959095E9
:101C5000BC01CD010895EE0FFF1F0590F491E02D1A
:101C600009940F931F93CF93DF938230910510F463
:101C700082E090E0E091ED03F091EE0330E020E0AF
:101C8000B0E0A0E0309799F42115310509F44AC07D
:101C9000281B390B24303105D8F58A819B816115C9
:101CA000710589F1FB0193838283FE0111C040819C
:101CB00051810281138148175907E0F048175907ED
:101CC00099F4109761F012960C93129713961C9347
:101CD0003296CF01DF91CF911F910F91089500931C
:101CE000ED031093EE03F4CF2115310551F04217A7
:101CF000530738F0A901DB019A01BD01DF01F801AA
:101D0000C1CFEF01F9CF9093EE038093ED03CDCFD8
:101D1000FE01E20FF31F8193919322503109398321
:101D20002883D7CF2091EB033091EC03232B41F490
:101D300020910201309103013093EC032093EB03D7
:101D400020910001309101012115310541F42DB799
:101D50003EB74091040150910501241B350BE091E1
:101D6000EB03F091EC03E217F307A0F42E1B3F0BFB
:101D70002817390778F0AC014E5F5F4F24173507FD
:101D800048F04E0F5F1F5093EC034093EB03819399
:101D900091939FCFF0E0E0E09CCFCF93DF9300974B
:101DA000E9F0FC01329713821282A091ED03B09109
:101DB000EE03ED0130E020E01097A1F420813181A5
:101DC000820F931F2091EB033091EC032817390702
:101DD00009F061C0F093EC03E093EB03DF91CF9146
:101DE0000895EA01CE17DF07E8F54A815B819E017D
:101DF00041155105B1F7E901FB83EA8349915991F6
:101E0000C40FD51FEC17FD0761F480819181029604
:101E1000840F951FE90199838883828193819B8335
:101E20008A83F0E0E0E012968D919C9113970097E1
:101E3000B9F52D913C911197CD010296820F931F18
:101E40002091EB033091EC032817390739F63097CE
:101E500051F51092EE031092ED03B093EC03A093B2
:101E6000EB03BCCFD383C28340815181840F951F84
:101E7000C817D90761F44E5F5F4F88819981480F79
:101E8000591F518340838A819B81938382832115CB
:101E9000310509F0B0CFF093EE03E093ED039ECF50
:101EA000FD01DC01C0CF13821282D7CFB0E0A0E0E9
:101EB000ECE5FFE00C94760D8C01009751F4CB011A
:101EC0000E94310E8C01C801CDB7DEB7E0E10C9461
:101ED000920DFC01E60FF71F9C0122503109E21719
:101EE000F30708F49DC0D901CD91DC911197C61775
:101EF000D70798F0C530D10530F3CE010497861787
:101F0000970708F3C61BD70B2297C193D1936D9304
:101F10007C93CF010E94CD0ED6CF5B01AC1ABD0AD7
:101F20004C018C0E9D1EA091ED03B091EE03512C3F
:101F3000412CF12CE12C109731F58091EB0390911D
:101F4000EC038815990509F05CC04616570608F0A1
:101F500058C08091000190910101009741F48DB724
:101F60009EB74091040150910501841B950BE81721
:101F7000F90708F055C0F093EC03E093EB03F90187
:101F800071836083A0CF8D919C91119712966C9074
:101F9000129713967C901397A815B90559F56C0103
:101FA00042E0C40ED11CCA14DB0420F1AC014A1972
:101FB0005B09DA011296159780F062827382518371
:101FC0004083D9016D937C93E114F10471F0D70142
:101FD0001396FC93EE93129776CF22968C0F9D1F4B
:101FE000F90191838083F301EFCFF093EE03E09347
:101FF000ED0369CF4816590608F42C017D01D30181
:102000009ACFCB010E94310E7C01009749F0AE01BE
:10201000B8010E941310C8010E94CD0E870153CF52
:1020200010E000E050CFFB01DC0102C001900D92F6
:1020300041505040D8F70895FB01DC0101900D920A
:102040000020E1F7089510E0C2E6D0E004C0FE01F0
:102050000E942B0E2196C336D107C9F7F894FFCF03
:102060000000EF0380000000400014005400000056
:1020700000002F018F00BC007C01ED00CB00DF00D1
:1020800000000000DB03AE03F1048802A703940301
:1020900085030000000089028F00F1048802E50238
:1020A000FD0270020000000055058F00F1041E03C0
:1020B00041542B434D47463D31000D0A0041542BFE
:1020C000434D47533D222B3132333435363738397F
:1020D000302200466C6F6F64204D6F6E69746F72B2
:1020E000696E670053797374656D205374617274FF
:1020F000696E6700466C6F6F64206D6F6E69746FF8
:1021000072696E672073797374656D20696E697486
:1021100069616C697A656420616E642072756E6EA7
:10212000696E672E005761746572204C6576656C28
:102130003A0020636D202000212120464C4F4F445F
:1021400020414C45525420212100466C6F6F642081
:10215000616C65727421205761746572206C6576BC
:10216000656C20697320746F6F20686967682E0042
:00000001FF
